012016010496TIMP3F      020TIM PART S/AON      NM   R$  000000000066800000000006800000000000654000000000066700000000006540000000000654000000000067800038000000000000000818000000000000545660000000000000009999123100000010000000000000BRTIMPACNOR1104
012016010596TIMP3F      020TIM PART S/AON      NM   R$  000000000066700000000006800000000000655000000000067000000000006550000000000655000000000070000077000000000000000669000000000000448574000000000000009999123100000010000000000000BRTIMPACNOR1104
012016010696TIMP3F      020TIM PART S/AON      NM   R$  000000000066500000000007200000000000660000000000068500000000007130000000000673000000000071300037000000000000001018000000000000698269000000000000009999123100000010000000000000BRTIMPACNOR1104
012016010796TIMP3F      020TIM PART S/AON      NM   R$  000000000065500000000006610000000000642000000000064900000000006450000000000645000000000066100042000000000000000990000000000000643309000000000000009999123100000010000000000000BRTIMPACNOR1104
012016010896TIMP3F      020TIM PART S/AON      NM   R$  000000000067100000000006710000000000617000000000063800000000006170000000000617000000000067300053000000000000000843000000000000538392000000000000009999123100000010000000000000BRTIMPACNOR1104
012016011196TIMP3F      020TIM PART S/AON      NM   R$  000000000061800000000006210000000000600000000000061200000000006020000000000600000000000060200048000000000000001149000000000000703775000000000000009999123100000010000000000000BRTIMPACNOR1104
012016011296TIMP3F      020TIM PART S/AON      NM   R$  000000000060600000000006200000000000596000000000060800000000006100000000000604000000000061000042000000000000000614000000000000373633000000000000009999123100000010000000000000BRTIMPACNOR1104
012016011396TIMP3F      020TIM PART S/AON      NM   R$  000000000061100000000006150000000000595000000000060500000000005950000000000595000000000065900026000000000000000521000000000000315660000000000000009999123100000010000000000000BRTIMPACNOR1104
012016011496TIMP3F      020TIM PART S/AON      NM   R$  000000000062900000000006470000000000571000000000059800000000005720000000000572000000000064800055000000000000001502000000000000899557000000000000009999123100000010000000000000BRTIMPACNOR1104
012016011596TIMP3F      020TIM PART S/AON      NM   R$  000000000060200000000006170000000000582000000000059600000000006170000000000590000000000061700039000000000000000970000000000000578690000000000000009999123100000010000000000000BRTIMPACNOR1104
012016011896TIMP3F      020TIM PART S/AON      NM   R$  000000000058000000000005890000000000573000000000057500000000005730000000000573000000000064200031000000000000000665000000000000382666000000000000009999123100000010000000000000BRTIMPACNOR1104
012016011996TIMP3F      020TIM PART S/AON      NM   R$  000000000058800000000005960000000000584000000000059000000000005840000000000584000000000063900040000000000000001206000000000000712439000000000000009999123100000010000000000000BRTIMPACNOR1104
012016012096TIMP3F      020TIM PART S/AON      NM   R$  000000000058300000000006980000000000580000000000060800000000006980000000000584000000000069800030000000000000000884000000000000537881000000000000009999123100000010000000000000BRTIMPACNOR1104
012016012196TIMP3F      020TIM PART S/AON      NM   R$  000000000060600000000006150000000000602000000000060800000000006020000000000602000000000064900018000000000000000634000000000000385791000000000000009999123100000010000000000000BRTIMPACNOR1104
012016012296TIMP3F      020TIM PART S/AON      NM   R$  000000000062900000000006340000000000620000000000062500000000006270000000000610000000000062700028000000000000000561000000000000350977000000000000009999123100000010000000000000BRTIMPACNOR1104
012016012696TIMP3F      020TIM PART S/AON      NM   R$  000000000060300000000006080000000000596000000000060000000000006010000000000599000000000060100038000000000000000632000000000000379812000000000000009999123100000010000000000000BRTIMPACNOR1104
012016012796TIMP3F      020TIM PART S/AON      NM   R$  000000000060000000000006500000000000600000000000062700000000006500000000000631000000000065000034000000000000000595000000000000373626000000000000009999123100000010000000000000BRTIMPACNOR1104
012016012896TIMP3F      020TIM PART S/AON      NM   R$  000000000063500000000006460000000000599000000000062000000000006430000000000597000000000064300042000000000000000674000000000000418438000000000000009999123100000010000000000000BRTIMPACNOR1104
012016012996TIMP3F      020TIM PART S/AON      NM   R$  000000000060800000000006290000000000590000000000060600000000006210000000000621000000000064700038000000000000001046000000000000634825000000000000009999123100000010000000000000BRTIMPACNOR1104
012016020196TIMP3F      020TIM PART S/AON      NM   R$  000000000063200000000006480000000000616000000000063300000000006350000000000635000000000064100024000000000000000674000000000000427292000000000000009999123100000010000000000000BRTIMPACNOR1104
012016020296TIMP3F      020TIM PART S/AON      NM   R$  000000000063000000000006300000000000610000000000061500000000006130000000000607000000000061300018000000000000000632000000000000388687000000000000009999123100000010000000000000BRTIMPACNOR1104
012016020396TIMP3F      020TIM PART S/AON      NM   R$  000000000061100000000006240000000000603000000000061300000000006160000000000600000000000061600048000000000000001249000000000000766038000000000000009999123100000010000000000000BRTIMPACNOR1104
012016020496TIMP3F      020TIM PART S/AON      NM   R$  000000000061300000000006440000000000600000000000063200000000006370000000000597000000000063700067000000000000001536000000000000971255000000000000009999123100000010000000000000BRTIMPACNOR1104
012016020596TIMP3F      020TIM PART S/AON      NM   R$  000000000063600000000006430000000000599000000000060600000000006020000000000602000000000064900053000000000000001384000000000000838881000000000000009999123100000010000000000000BRTIMPACNOR1104
012016021096TIMP3F      020TIM PART S/AON      NM   R$  000000000059500000000006040000000000593000000000059900000000006010000000000594000000000060100048000000000000001330000000000000797224000000000000009999123100000010000000000000BRTIMPACNOR1104
012016021196TIMP3F      020TIM PART S/AON      NM   R$  000000000059200000000005920000000000564000000000057400000000005720000000000567000000000057300031000000000000000893000000000000512935000000000000009999123100000010000000000000BRTIMPACNOR1104
012016021296TIMP3F      020TIM PART S/AON      NM   R$  000000000057500000000006000000000000570000000000058400000000005980000000000598000000000063500031000000000000000971000000000000567373000000000000009999123100000010000000000000BRTIMPACNOR1104
012016021596TIMP3F      020TIM PART S/AON      NM   R$  000000000061200000000006170000000000595000000000060900000000006060000000000605000000000060600083000000000000001471000000000000896609000000000000009999123100000010000000000000BRTIMPACNOR1104
012016021696TIMP3F      020TIM PART S/AON      NM   R$  000000000060700000000006350000000000602000000000062000000000006310000000000601000000000063100023000000000000000655000000000000406162000000000000009999123100000010000000000000BRTIMPACNOR1104
012016021796TIMP3F      020TIM PART S/AON      NM   R$  000000000063900000000006470000000000600000000000063500000000006000000000000600000000000063200049000000000000001537000000000000976518000000000000009999123100000010000000000000BRTIMPACNOR1104
012016021896TIMP3F      020TIM PART S/AON      NM   R$  000000000062500000000006390000000000609000000000063200000000006390000000000635000000000063900039000000000000000796000000000000503212000000000000009999123100000010000000000000BRTIMPACNOR1104
012016021996TIMP3F      020TIM PART S/AON      NM   R$  000000000063000000000006480000000000627000000000063400000000006360000000000621000000000063600019000000000000000348000000000000220871000000000000009999123100000010000000000000BRTIMPACNOR1104
012016022296TIMP3F      020TIM PART S/AON      NM   R$  000000000062800000000006630000000000628000000000065200000000006570000000000657000000000066100032000000000000000793000000000000517781000000000000009999123100000010000000000000BRTIMPACNOR1104
012016022396TIMP3F      020TIM PART S/AON      NM   R$  000000000065600000000006620000000000630000000000064500000000006300000000000630000000000066700042000000000000001141000000000000736838000000000000009999123100000010000000000000BRTIMPACNOR1104
012016022496TIMP3F      020TIM PART S/AON      NM   R$  000000000062800000000006400000000000595000000000063000000000006390000000000639000000000066700017000000000000000405000000000000255263000000000000009999123100000010000000000000BRTIMPACNOR1104
012016022596TIMP3F      020TIM PART S/AON      NM   R$  000000000062500000000006550000000000625000000000064400000000006430000000000643000000000066700027000000000000000588000000000000379127000000000000009999123100000010000000000000BRTIMPACNOR1104
012016022696TIMP3F      020TIM PART S/AON      NM   R$  000000000065500000000006740000000000649000000000066500000000006690000000000669000000000068700042000000000000001442000000000000959066000000000000009999123100000010000000000000BRTIMPACNOR1104
012016022996TIMP3F      020TIM PART S/AON      NM   R$  000000000068700000000007010000000000680000000000069300000000006930000000000693000000000070400063000000000000002035000000000001411558000000000000009999123100000010000000000000BRTIMPACNOR1104
012016030196TIMP3F      020TIM PART S/AON      NM   R$  000000000070000000000007260000000000700000000000071800000000007250000000000725000000000073000053000000000000001203000000000000864699000000000000009999123100000010000000000000BRTIMPACNOR1104
012016030296TIMP3F      020TIM PART S/AON      NM   R$  000000000072700000000007450000000000715000000000072800000000007430000000000691000000000074300024000000000000000715000000000000520617000000000000009999123100000010000000000000BRTIMPACNOR1104
012016030396TIMP3F      020TIM PART S/AON      NM   R$  000000000072700000000007590000000000723000000000074100000000007230000000000723000000000075700044000000000000001307000000000000969283000000000000009999123100000010000000000000BRTIMPACNOR1104
012016030496TIMP3F      020TIM PART S/AON      NM   R$  000000000076000000000007820000000000750000000000076900000000007740000000000753000000000077400032000000000000000685000000000000526875000000000000009999123100000010000000000000BRTIMPACNOR1104
012016030796TIMP3F      020TIM PART S/AON      NM   R$  000000000076200000000007910000000000759000000000076900000000007600000000000760000000000076600080000000000000002220000000000001708447000000000000009999123100000010000000000000BRTIMPACNOR1104
012016030896TIMP3F      020TIM PART S/AON      NM   R$  000000000076000000000008000000000000739000000000076300000000007460000000000746000000000082500059000000000000001502000000000001146783000000000000009999123100000010000000000000BRTIMPACNOR1104
012016030996TIMP3F      020TIM PART S/AON      NM   R$  000000000075000000000007750000000000750000000000075900000000007500000000000750000000000075900069000000000000001322000000000001003738000000000000009999123100000010000000000000BRTIMPACNOR1104
012016031096TIMP3F      020TIM PART S/AON      NM   R$  000000000077400000000007750000000000736000000000075500000000007570000000000757000000000080000064000000000000001783000000000001347662000000000000009999123100000010000000000000BRTIMPACNOR1104
012016031196TIMP3F      020TIM PART S/AON      NM   R$  000000000076400000000007700000000000739000000000075600000000007700000000000703000000000077000053000000000000001067000000000000806700000000000000009999123100000010000000000000BRTIMPACNOR1104
012016031496TIMP3F      020TIM PART S/AON      NM   R$  000000000077700000000007770000000000753000000000076300000000007530000000000753000000000077000021000000000000000659000000000000503091000000000000009999123100000010000000000000BRTIMPACNOR1104
012016031596TIMP3F      020TIM PART S/AON      NM   R$  000000000074600000000007590000000000734000000000075300000000007590000000000699000000000075900021000000000000000411000000000000309805000000000000009999123100000010000000000000BRTIMPACNOR1104
012016031696TIMP3F      020TIM PART S/AON      NM   R$  000000000074200000000007780000000000740000000000076200000000007780000000000765000000000077800024000000000000000625000000000000476698000000000000009999123100000010000000000000BRTIMPACNOR1104
012016031796TIMP3F      020TIM PART S/AON      NM   R$  000000000075300000000008200000000000753000000000080000000000008200000000000808000000000082000082000000000000001584000000000001269484000000000000009999123100000010000000000000BRTIMPACNOR1104
012016031896TIMP3F      020TIM PART S/AON      NM   R$  000000000082000000000008200000000000721000000000078500000000007740000000000738000000000077400059000000000000001362000000000001068702000000000000009999123100000010000000000000BRTIMPACNOR1104
012016032196TIMP3F      020TIM PART S/AON      NM   R$  000000000078600000000008400000000000786000000000082100000000007860000000000786000000000082300072000000000000001627000000000001336364000000000000009999123100000010000000000000BRTIMPACNOR1104
012016032296TIMP3F      020TIM PART S/AON      NM   R$  000000000082000000000008290000000000786000000000080700000000008120000000000812000000000081700054000000000000001589000000000001283924000000000000009999123100000010000000000000BRTIMPACNOR1104
012016032396TIMP3F      020TIM PART S/AON      NM   R$  000000000082800000000008280000000000795000000000080300000000007990000000000799000000000081900021000000000000000601000000000000482649000000000000009999123100000010000000000000BRTIMPACNOR1104
012016032496TIMP3F      020TIM PART S/AON      NM   R$  000000000081800000000008180000000000801000000000081400000000008130000000000813000000000081800020000000000000000362000000000000294837000000000000009999123100000010000000000000BRTIMPACNOR1104
012016032896TIMP3F      020TIM PART S/AON      NM   R$  000000000082300000000008360000000000795000000000082000000000007950000000000795000000000084000031000000000000000698000000000000572699000000000000009999123100000010000000000000BRTIMPACNOR1104
012016032996TIMP3F      020TIM PART S/AON      NM   R$  000000000081200000000008280000000000812000000000082100000000008200000000000820000000000083000025000000000000000553000000000000454379000000000000009999123100000010000000000000BRTIMPACNOR1104
012016033096TIMP3F      020TIM PART S/AON      NM   R$  000000000083200000000008480000000000823000000000083300000000008230000000000823000000000084000045000000000000001159000000000000966298000000000000009999123100000010000000000000BRTIMPACNOR1104
012016033196TIMP3F      020TIM PART S/AON      NM   R$  000000000082300000000008230000000000788000000000080000000000008000000000000790000000000080000025000000000000000701000000000000560375000000000000009999123100000010000000000000BRTIMPACNOR1104
012016040196TIMP3F      020TIM PART S/AON      NM   R$  000000000079100000000008040000000000787000000000079900000000008040000000000790000000000080400040000000000000000980000000000000783976000000000000009999123100000010000000000000BRTIMPACNOR1104
012016040496TIMP3F      020TIM PART S/AON      NM   R$  000000000080300000000008030000000000770000000000078200000000007700000000000770000000000077500027000000000000000603000000000000471602000000000000009999123100000010000000000000BRTIMPACNOR1104
012016040596TIMP3F      020TIM PART S/AON      NM   R$  000000000076900000000007710000000000749000000000076000000000007490000000000749000000000076100031000000000000000968000000000000735681000000000000009999123100000010000000000000BRTIMPACNOR1104
012016040696TIMP3F      020TIM PART S/AON      NM   R$  000000000075000000000007720000000000740000000000075200000000007720000000000736000000000077200025000000000000000716000000000000538826000000000000009999123100000010000000000000BRTIMPACNOR1104
012016040796TIMP3F      020TIM PART S/AON      NM   R$  000000000075000000000007570000000000740000000000074600000000007400000000000740000000000076200029000000000000000580000000000000432873000000000000009999123100000010000000000000BRTIMPACNOR1104
012016040896TIMP3F      020TIM PART S/AON      NM   R$  000000000077800000000007780000000000752000000000075700000000007530000000000750000000000075300029000000000000000777000000000000588457000000000000009999123100000010000000000000BRTIMPACNOR1104
012016041196TIMP3F      020TIM PART S/AON      NM   R$  000000000076100000000007710000000000726000000000074300000000007680000000000719000000000076800041000000000000001155000000000000858280000000000000009999123100000010000000000000BRTIMPACNOR1104
012016041296TIMP3F      020TIM PART S/AON      NM   R$  000000000074200000000007590000000000731000000000074600000000007480000000000748000000000076100033000000000000001089000000000000813265000000000000009999123100000010000000000000BRTIMPACNOR1104
012016041396TIMP3F      020TIM PART S/AON  ED  NM   R$  000000000075300000000007620000000000742000000000075000000000007420000000000742000000000076000032000000000000000973000000000000730585000000000000009999123100000010000000000000BRTIMPACNOR1105
012016041496TIMP3F      020TIM PART S/AON  ED  NM   R$  000000000079800000000007980000000000724000000000073600000000007240000000000724000000000080800039000000000000001009000000000000742699000000000000009999123100000010000000000000BRTIMPACNOR1105
012016041596TIMP3F      020TIM PART S/AON  ED  NM   R$  000000000070100000000007950000000000701000000000072600000000007030000000000703000000000074700057000000000000001719000000000001249554000000000000009999123100000010000000000000BRTIMPACNOR1105
012016041896TIMP3F      020TIM PART S/AON  ED  NM   R$  000000000070800000000007580000000000708000000000074400000000007580000000000735000000000075800026000000000000000603000000000000449174000000000000009999123100000010000000000000BRTIMPACNOR1105
012016041996TIMP3F      020TIM PART S/AON  ED  NM   R$  000000000073200000000007600000000000732000000000074300000000007450000000000716000000000074500030000000000000001006000000000000747940000000000000009999123100000010000000000000BRTIMPACNOR1105
012016042096TIMP3F      020TIM PART S/AON  ED  NM   R$  000000000074100000000007600000000000741000000000075600000000007600000000000721000000000076000037000000000000000945000000000000714567000000000000009999123100000010000000000000BRTIMPACNOR1105
012016042296TIMP3F      020TIM PART S/AON  ED  NM   R$  000000000076400000000008160000000000764000000000080500000000008120000000000805000000000081200040000000000000000967000000000000779315000000000000009999123100000010000000000000BRTIMPACNOR1105
012016042596TIMP3F      020TIM PART S/AON  ED  NM   R$  000000000082000000000008350000000000763000000000078800000000007700000000000753000000000077000043000000000000001238000000000000974823000000000000009999123100000010000000000000BRTIMPACNOR1105
012016042696TIMP3F      020TIM PART S/AON      NM   R$  000000000080000000000008000000000000775000000000078400000000007860000000000778000000000078600038000000000000001087000000000000852302000000000000009999123100000010000000000000BRTIMPACNOR1105
012016042796TIMP3F      020TIM PART S/AON      NM   R$  000000000080000000000008000000000000782000000000079200000000007970000000000785000000000079700031000000000000000899000000000000712873000000000000009999123100000010000000000000BRTIMPACNOR1105
012016042896TIMP3F      020TIM PART S/AON      NM   R$  000000000080000000000008000000000000755000000000077300000000008000000000000751000000000080000045000000000000000920000000000000712054000000000000009999123100000010000000000000BRTIMPACNOR1105
012016042996TIMP3F      020TIM PART S/AON      NM   R$  000000000075300000000007710000000000748000000000075400000000007480000000000748000000000079800037000000000000000855000000000000645409000000000000009999123100000010000000000000BRTIMPACNOR1105
012016050296TIMP3F      020TIM PART S/AON      NM   R$  000000000076200000000007750000000000762000000000076800000000007620000000000762000000000077400027000000000000000960000000000000737850000000000000009999123100000010000000000000BRTIMPACNOR1105
012016050396TIMP3F      020TIM PART S/AON      NM   R$  000000000076500000000007730000000000759000000000076400000000007660000000000766000000000077300035000000000000000943000000000000720979000000000000009999123100000010000000000000BRTIMPACNOR1105
012016050496TIMP3F      020TIM PART S/AON      NM   R$  000000000075100000000007530000000000732000000000074200000000007400000000000732000000000074000048000000000000001355000000000001006060000000000000009999123100000010000000000000BRTIMPACNOR1105
012016050596TIMP3F      020TIM PART S/AON      NM   R$  000000000073200000000007350000000000720000000000072600000000007200000000000720000000000076000020000000000000000445000000000000323425000000000000009999123100000010000000000000BRTIMPACNOR1105
012016050696TIMP3F      020TIM PART S/AON      NM   R$  000000000074500000000007450000000000714000000000072100000000007150000000000715000000000074500026000000000000000757000000000000546617000000000000009999123100000010000000000000BRTIMPACNOR1105
012016050996TIMP3F      020TIM PART S/AON      NM   R$  000000000074000000000007400000000000700000000000071600000000007000000000000700000000000071800034000000000000001182000000000000847187000000000000009999123100000010000000000000BRTIMPACNOR1105
012016051096TIMP3F      020TIM PART S/AON      NM   R$  000000000071700000000007330000000000717000000000072500000000007280000000000728000000000073400024000000000000000513000000000000372807000000000000009999123100000010000000000000BRTIMPACNOR1105
012016051196TIMP3F      020TIM PART S/AON      NM   R$  000000000074300000000007520000000000726000000000073400000000007260000000000726000000000076100018000000000000000509000000000000374018000000000000009999123100000010000000000000BRTIMPACNOR1105
012016051296TIMP3F      020TIM PART S/AON      NM   R$  000000000074100000000007660000000000741000000000075700000000007560000000000756000000000076400042000000000000001193000000000000903924000000000000009999123100000010000000000000BRTIMPACNOR1105
012016051396TIMP3F      020TIM PART S/AON      NM   R$  000000000073400000000007540000000000734000000000074500000000007400000000000736000000000074000015000000000000000588000000000000438077000000000000009999123100000010000000000000BRTIMPACNOR1105
012016051696TIMP3F      020TIM PART S/AON      NM   R$  000000000074200000000007530000000000737000000000074400000000007410000000000721000000000074100028000000000000000848000000000000631554000000000000009999123100000010000000000000BRTIMPACNOR1105
012016051796TIMP3F      020TIM PART S/AON      NM   R$  000000000072800000000007350000000000721000000000072700000000007210000000000721000000000078200017000000000000000509000000000000370337000000000000009999123100000010000000000000BRTIMPACNOR1105
012016051896TIMP3F      020TIM PART S/AON      NM   R$  000000000071900000000007200000000000701000000000071300000000007200000000000702000000000072000038000000000000001321000000000000942940000000000000009999123100000010000000000000BRTIMPACNOR1105
012016051996TIMP3F      020TIM PART S/AON      NM   R$  000000000070500000000007100000000000694000000000070000000000006940000000000691000000000069400021000000000000000620000000000000434033000000000000009999123100000010000000000000BRTIMPACNOR1105
012016052096TIMP3F      020TIM PART S/AON      NM   R$  000000000070300000000007030000000000688000000000069300000000006960000000000686000000000069600023000000000000000648000000000000449230000000000000009999123100000010000000000000BRTIMPACNOR1105
012016052396TIMP3F      020TIM PART S/AON      NM   R$  000000000067500000000006940000000000675000000000068900000000006940000000000679000000000069400014000000000000000457000000000000315696000000000000009999123100000010000000000000BRTIMPACNOR1105
012016052496TIMP3F      020TIM PART S/AON      NM   R$  000000000072700000000007270000000000676000000000069000000000007000000000000690000000000070000020000000000000000400000000000000276242000000000000009999123100000010000000000000BRTIMPACNOR1105
012016052596TIMP3F      020TIM PART S/AON      NM   R$  000000000070300000000007490000000000699000000000070300000000007000000000000700000000000070800030000000000000000794000000000000558337000000000000009999123100000010000000000000BRTIMPACNOR1105
012016052796TIMP3F      020TIM PART S/AON      NM   R$  000000000071100000000007130000000000696000000000070100000000006960000000000696000000000070000020000000000000000472000000000000330893000000000000009999123100000010000000000000BRTIMPACNOR1105
012016053096TIMP3F      020TIM PART S/AON      NM   R$  000000000069500000000006970000000000693000000000069500000000006950000000000695000000000069800021000000000000000591000000000000411142000000000000009999123100000010000000000000BRTIMPACNOR1105
012016053196TIMP3F      020TIM PART S/AON      NM   R$  000000000069900000000007390000000000695000000000072300000000007390000000000739000000000074800050000000000000001318000000000000953189000000000000009999123100000010000000000000BRTIMPACNOR1105
012016060196TIMP3F      020TIM PART S/AON      NM   R$  000000000070300000000007160000000000692000000000070100000000007000000000000692000000000070000037000000000000001120000000000000785783000000000000009999123100000010000000000000BRTIMPACNOR1105
012016060296TIMP3F      020TIM PART S/AON      NM   R$  000000000069600000000007000000000000689000000000069400000000007000000000000689000000000070000025000000000000000615000000000000426755000000000000009999123100000010000000000000BRTIMPACNOR1105
012016060396TIMP3F      020TIM PART S/AON      NM   R$  000000000068700000000007060000000000687000000000070300000000007060000000000683000000000070600022000000000000000518000000000000364487000000000000009999123100000010000000000000BRTIMPACNOR1105
012016060696TIMP3F      020TIM PART S/AON      NM   R$  000000000070700000000007070000000000687000000000069500000000006970000000000688000000000069700023000000000000000558000000000000388215000000000000009999123100000010000000000000BRTIMPACNOR1105
012016060796TIMP3F      020TIM PART S/AON      NM   R$  000000000068200000000007190000000000682000000000070500000000007190000000000684000000000071900022000000000000000599000000000000422402000000000000009999123100000010000000000000BRTIMPACNOR1105
012016060896TIMP3F      020TIM PART S/AON      NM   R$  000000000072500000000007480000000000712000000000072300000000007480000000000681000000000074800034000000000000000767000000000000555101000000000000009999123100000010000000000000BRTIMPACNOR1105
012016060996TIMP3F      020TIM PART S/AON      NM   R$  000000000072300000000007230000000000688000000000069500000000006990000000000685000000000069900021000000000000000641000000000000445656000000000000009999123100000010000000000000BRTIMPACNOR1105
012016061096TIMP3F      020TIM PART S/AON      NM   R$  000000000070000000000007180000000000674000000000068500000000007180000000000673000000000071800030000000000000000648000000000000443922000000000000009999123100000010000000000000BRTIMPACNOR1105
012016061396TIMP3F      020TIM PART S/AON      NM   R$  000000000069800000000006980000000000660000000000066700000000006600000000000660000000000066500034000000000000000603000000000000402440000000000000009999123100000010000000000000BRTIMPACNOR1105
012016061496TIMP3F      020TIM PART S/AON      NM   R$  000000000066000000000006600000000000642000000000065000000000006530000000000643000000000065300042000000000000000740000000000000481380000000000000009999123100000010000000000000BRTIMPACNOR1105
012016061596TIMP3F      020TIM PART S/AON      NM   R$  000000000064800000000006770000000000648000000000066100000000006770000000000657000000000067700041000000000000001243000000000000822774000000000000009999123100000010000000000000BRTIMPACNOR1105
012016061696TIMP3F      020TIM PART S/AON      NM   R$  000000000066300000000006630000000000649000000000065700000000006620000000000651000000000066200025000000000000000603000000000000396427000000000000009999123100000010000000000000BRTIMPACNOR1105
012016061796TIMP3F      020TIM PART S/AON      NM   R$  000000000066500000000006920000000000656000000000067600000000006920000000000659000000000069200032000000000000000962000000000000650756000000000000009999123100000010000000000000BRTIMPACNOR1105
012016062096TIMP3F      020TIM PART S/AON      NM   R$  000000000069300000000006930000000000659000000000067900000000006590000000000659000000000068300028000000000000000655000000000000445326000000000000009999123100000010000000000000BRTIMPACNOR1105
012016062196TIMP3F      020TIM PART S/AON      NM   R$  000000000066600000000007090000000000666000000000069200000000006930000000000688000000000069300044000000000000001273000000000000881508000000000000009999123100000010000000000000BRTIMPACNOR1105
012016062296TIMP3F      020TIM PART S/AON      NM   R$  000000000071000000000007100000000000676000000000068600000000006950000000000666000000000069500036000000000000000936000000000000642339000000000000009999123100000010000000000000BRTIMPACNOR1105
012016062396TIMP3F      020TIM PART S/AON      NM   R$  000000000068000000000007000000000000678000000000069400000000007000000000000694000000000070000026000000000000000438000000000000304193000000000000009999123100000010000000000000BRTIMPACNOR1105
012016062496TIMP3F      020TIM PART S/AON      NM   R$  000000000067000000000006780000000000652000000000066100000000006540000000000652000000000065400039000000000000000992000000000000656082000000000000009999123100000010000000000000BRTIMPACNOR1105
012016062796TIMP3F      020TIM PART S/AON      NM   R$  000000000065200000000006520000000000630000000000064200000000006420000000000636000000000071200039000000000000000878000000000000564068000000000000009999123100000010000000000000BRTIMPACNOR1105
012016062896TIMP3F      020TIM PART S/AON      NM   R$  000000000063900000000006630000000000639000000000065900000000006600000000000656000000000066000012000000000000000349000000000000230408000000000000009999123100000010000000000000BRTIMPACNOR1105
012016062996TIMP3F      020TIM PART S/AON      NM   R$  000000000067100000000006820000000000671000000000067700000000006790000000000675000000000067900131000000000000000862000000000000583606000000000000009999123100000010000000000000BRTIMPACNOR1105
012016063096TIMP3F      020TIM PART S/AON      NM   R$  000000000067300000000006970000000000662000000000067000000000006700000000000670000000000069800030000000000000000762000000000000511120000000000000009999123100000010000000000000BRTIMPACNOR1105
012016070196TIMP3F      020TIM PART S/AON      NM   R$  000000000069600000000007090000000000685000000000069900000000007050000000000692000000000070500036000000000000000964000000000000673994000000000000009999123100000010000000000000BRTIMPACNOR1105
012016070496TIMP3F      020TIM PART S/AON      NM   R$  000000000069200000000007100000000000661000000000069500000000006870000000000682000000000068700027000000000000000507000000000000352813000000000000009999123100000010000000000000BRTIMPACNOR1105
012016070596TIMP3F      020TIM PART S/AON      NM   R$  000000000069000000000006930000000000680000000000068800000000006930000000000681000000000069300044000000000000000891000000000000613417000000000000009999123100000010000000000000BRTIMPACNOR1105
012016070696TIMP3F      020TIM PART S/AON      NM   R$  000000000068100000000006810000000000671000000000067600000000006800000000000680000000000069100024000000000000000619000000000000418947000000000000009999123100000010000000000000BRTIMPACNOR1105
012016070796TIMP3F      020TIM PART S/AON      NM   R$  000000000068300000000007030000000000683000000000069700000000007030000000000663000000000070300019000000000000000376000000000000262183000000000000009999123100000010000000000000BRTIMPACNOR1105
012016070896TIMP3F      020TIM PART S/AON      NM   R$  000000000070800000000007280000000000706000000000071600000000007280000000000712000000000072800027000000000000000688000000000000493175000000000000009999123100000010000000000000BRTIMPACNOR1105
012016071196TIMP3F      020TIM PART S/AON      NM   R$  000000000071200000000007320000000000712000000000072500000000007300000000000730000000000073300053000000000000000734000000000000532617000000000000009999123100000010000000000000BRTIMPACNOR1105
012016071296TIMP3F      020TIM PART S/AON      NM   R$  000000000073400000000007460000000000717000000000073200000000007170000000000717000000000073000027000000000000000649000000000000475535000000000000009999123100000010000000000000BRTIMPACNOR1105
012016071396TIMP3F      020TIM PART S/AON      NM   R$  000000000072500000000007600000000000725000000000074300000000007400000000000740000000000075600041000000000000000854000000000000635540000000000000009999123100000010000000000000BRTIMPACNOR1105
012016071496TIMP3F      020TIM PART S/AON      NM   R$  000000000076000000000007810000000000753000000000076700000000007730000000000773000000000079000036000000000000000903000000000000693404000000000000009999123100000010000000000000BRTIMPACNOR1105
012016071596TIMP3F      020TIM PART S/AON      NM   R$  000000000081700000000008170000000000766000000000077700000000007780000000000760000000000077800041000000000000001241000000000000965414000000000000009999123100000010000000000000BRTIMPACNOR1105
012016071896TIMP3F      020TIM PART S/AON      NM   R$  000000000076100000000007820000000000761000000000077200000000007670000000000767000000000078300028000000000000000636000000000000491143000000000000009999123100000010000000000000BRTIMPACNOR1105
012016071996TIMP3F      020TIM PART S/AON      NM   R$  000000000077100000000007840000000000763000000000077900000000007790000000000779000000000078500030000000000000000809000000000000630563000000000000009999123100000010000000000000BRTIMPACNOR1105
012016072096TIMP3F      020TIM PART S/AON      NM   R$  000000000079400000000007960000000000780000000000078500000000007860000000000760000000000078600027000000000000000686000000000000538671000000000000009999123100000010000000000000BRTIMPACNOR1105
012016072196TIMP3F      020TIM PART S/AON      NM   R$  000000000077900000000008000000000000779000000000079100000000007910000000000791000000000079600027000000000000000775000000000000613497000000000000009999123100000010000000000000BRTIMPACNOR1105
012016072296TIMP3F      020TIM PART S/AON      NM   R$  000000000079500000000008050000000000793000000000080000000000008000000000000800000000000082200025000000000000000581000000000000465038000000000000009999123100000010000000000000BRTIMPACNOR1105
012016072596TIMP3F      020TIM PART S/AON      NM   R$  000000000079200000000007980000000000779000000000078900000000007830000000000783000000000079900027000000000000000827000000000000653250000000000000009999123100000010000000000000BRTIMPACNOR1105
012016072696TIMP3F      020TIM PART S/AON      NM   R$  000000000077800000000008290000000000777000000000081400000000008280000000000811000000000082800043000000000000001053000000000000857385000000000000009999123100000010000000000000BRTIMPACNOR1105
012016072796TIMP3F      020TIM PART S/AON      NM   R$  000000000081200000000008360000000000812000000000082800000000008330000000000833000000000083600036000000000000001097000000000000908971000000000000009999123100000010000000000000BRTIMPACNOR1105
012016072896TIMP3F      020TIM PART S/AON      NM   R$  000000000083000000000008430000000000815000000000082700000000008350000000000835000000000085700023000000000000000535000000000000442989000000000000009999123100000010000000000000BRTIMPACNOR1105
012016072996TIMP3F      020TIM PART S/AON      NM   R$  000000000081300000000008400000000000812000000000082700000000008150000000000815000000000085700038000000000000000937000000000000775794000000000000009999123100000010000000000000BRTIMPACNOR1105
012016080196TIMP3F      020TIM PART S/AON      NM   R$  000000000077600000000008460000000000776000000000083300000000008200000000000820000000000084700029000000000000000689000000000000574278000000000000009999123100000010000000000000BRTIMPACNOR1105
012016080296TIMP3F      020TIM PART S/AON      NM   R$  000000000083700000000008370000000000820000000000082500000000008200000000000820000000000084000033000000000000000946000000000000779509000000000000009999123100000010000000000000BRTIMPACNOR1105
012016080396TIMP3F      020TIM PART S/AON      NM   R$  000000000080900000000008490000000000800000000000083200000000008490000000000833000000000084900048000000000000001403000000000001168563000000000000009999123100000010000000000000BRTIMPACNOR1105
012016080496TIMP3F      020TIM PART S/AON      NM   R$  000000000083900000000008500000000000833000000000084000000000008380000000000832000000000083800024000000000000000625000000000000525183000000000000009999123100000010000000000000BRTIMPACNOR1105
012016080596TIMP3F      020TIM PART S/AON      NM   R$  000000000083800000000008400000000000809000000000081600000000008090000000000809000000000082300032000000000000000820000000000000669355000000000000009999123100000010000000000000BRTIMPACNOR1105
012016080896TIMP3F      020TIM PART S/AON      NM   R$  000000000082600000000008280000000000822000000000082400000000008220000000000822000000000082400018000000000000000461000000000000380052000000000000009999123100000010000000000000BRTIMPACNOR1105
012016080996TIMP3F      020TIM PART S/AON      NM   R$  000000000082500000000008310000000000815000000000082300000000008300000000000818000000000083000020000000000000000624000000000000513994000000000000009999123100000010000000000000BRTIMPACNOR1105
012016081096TIMP3F      020TIM PART S/AON      NM   R$  000000000082300000000008230000000000809000000000081600000000008170000000000806000000000081700018000000000000000505000000000000412293000000000000009999123100000010000000000000BRTIMPACNOR1105
012016081196TIMP3F      020TIM PART S/AON      NM   R$  000000000081000000000008270000000000804000000000081900000000008240000000000824000000000083700029000000000000000881000000000000721670000000000000009999123100000010000000000000BRTIMPACNOR1105
012016081296TIMP3F      020TIM PART S/AON      NM   R$  000000000082300000000008370000000000807000000000082700000000008370000000000797000000000083700020000000000000000601000000000000497533000000000000009999123100000010000000000000BRTIMPACNOR1105
012016081596TIMP3F      020TIM PART S/AON      NM   R$  000000000084800000000008500000000000813000000000083800000000008130000000000813000000000083800040000000000000000924000000000000773321000000000000009999123100000010000000000000BRTIMPACNOR1105
012016081696TIMP3F      020TIM PART S/AON      NM   R$  000000000084400000000008690000000000799000000000085000000000008690000000000845000000000086900070000000000000001814000000000001543630000000000000009999123100000010000000000000BRTIMPACNOR1105
012016081796TIMP3F      020TIM PART S/AON      NM   R$  000000000084700000000008500000000000836000000000084300000000008420000000000842000000000086900027000000000000000984000000000000829674000000000000009999123100000010000000000000BRTIMPACNOR1105
012016081896TIMP3F      020TIM PART S/AON      NM   R$  000000000085000000000008520000000000843000000000084800000000008500000000000850000000000086800028000000000000000743000000000000630790000000000000009999123100000010000000000000BRTIMPACNOR1105
012016081996TIMP3F      020TIM PART S/AON      NM   R$  000000000084000000000008430000000000821000000000083700000000008410000000000821000000000084100018000000000000000483000000000000404724000000000000009999123100000010000000000000BRTIMPACNOR1105
012016082296TIMP3F      020TIM PART S/AON      NM   R$  000000000086600000000008660000000000815000000000082100000000008200000000000806000000000082000033000000000000001071000000000000878637000000000000009999123100000010000000000000BRTIMPACNOR1105
012016082396TIMP3F      020TIM PART S/AON      NM   R$  000000000082800000000008400000000000828000000000083300000000008290000000000829000000000084000021000000000000000693000000000000577879000000000000009999123100000010000000000000BRTIMPACNOR1105
012016082496TIMP3F      020TIM PART S/AON      NM   R$  000000000083800000000008430000000000819000000000083400000000008300000000000830000000000085000019000000000000000344000000000000286974000000000000009999123100000010000000000000BRTIMPACNOR1105
012016082596TIMP3F      020TIM PART S/AON      NM   R$  000000000083600000000008370000000000793000000000082000000000007930000000000793000000000084000020000000000000000601000000000000493003000000000000009999123100000010000000000000BRTIMPACNOR1105
012016082696TIMP3F      020TIM PART S/AON      NM   R$  000000000082900000000008400000000000818000000000082500000000008400000000000822000000000084000032000000000000000756000000000000624335000000000000009999123100000010000000000000BRTIMPACNOR1105
012016082996TIMP3F      020TIM PART S/AON      NM   R$  000000000082300000000008350000000000823000000000082900000000008260000000000826000000000083400020000000000000000575000000000000476689000000000000009999123100000010000000000000BRTIMPACNOR1105
012016083096TIMP3F      020TIM PART S/AON      NM   R$  000000000082700000000008300000000000814000000000082100000000008140000000000814000000000084000023000000000000000731000000000000600473000000000000009999123100000010000000000000BRTIMPACNOR1105
012016083196TIMP3F      020TIM PART S/AON      NM   R$  000000000082400000000008490000000000824000000000083000000000008300000000000830000000000084900038000000000000000957000000000000794775000000000000009999123100000010000000000000BRTIMPACNOR1105
012016090196TIMP3F      020TIM PART S/AON      NM   R$  000000000084800000000008500000000000834000000000084100000000008390000000000839000000000085000044000000000000001572000000000001322843000000000000009999123100000010000000000000BRTIMPACNOR1105
012016090296TIMP3F      020TIM PART S/AON      NM   R$  000000000084500000000008560000000000835000000000084300000000008360000000000836000000000085600051000000000000001563000000000001318084000000000000009999123100000010000000000000BRTIMPACNOR1105
012016090596TIMP3F      020TIM PART S/AON      NM   R$  000000000083500000000008500000000000835000000000084500000000008400000000000840000000000084800023000000000000000756000000000000639273000000000000009999123100000010000000000000BRTIMPACNOR1105
012016090696TIMP3F      020TIM PART S/AON      NM   R$  000000000083500000000008640000000000835000000000085300000000008550000000000855000000000086800040000000000000001189000000000001014970000000000000009999123100000010000000000000BRTIMPACNOR1105
012016090896TIMP3F      020TIM PART S/AON      NM   R$  000000000085600000000008800000000000833000000000084200000000008330000000000833000000000085500055000000000000001486000000000001251851000000000000009999123100000010000000000000BRTIMPACNOR1105
012016090996TIMP3F      020TIM PART S/AON      NM   R$  000000000083100000000008310000000000801000000000081000000000008170000000000805000000000081700038000000000000001025000000000000830663000000000000009999123100000010000000000000BRTIMPACNOR1105
012016091296TIMP3F      020TIM PART S/AON      NM   R$  000000000078000000000008030000000000780000000000079200000000007930000000000793000000000079900040000000000000000883000000000000700034000000000000009999123100000010000000000000BRTIMPACNOR1105
012016091396TIMP3F      020TIM PART S/AON      NM   R$  000000000079300000000007930000000000776000000000078200000000007810000000000781000000000080900050000000000000001298000000000001015535000000000000009999123100000010000000000000BRTIMPACNOR1105
012016091496TIMP3F      020TIM PART S/AON      NM   R$  000000000078700000000007920000000000782000000000078600000000007820000000000782000000000079900008000000000000000206000000000000161987000000000000009999123100000010000000000000BRTIMPACNOR1105
012016091596TIMP3F      020TIM PART S/AON      NM   R$  000000000079400000000008100000000000787000000000080200000000007870000000000787000000000081100030000000000000000759000000000000609288000000000000009999123100000010000000000000BRTIMPACNOR1105
012016091696TIMP3F      020TIM PART S/AON      NM   R$  000000000079000000000008050000000000790000000000079700000000008000000000000789000000000080000026000000000000000826000000000000658887000000000000009999123100000010000000000000BRTIMPACNOR1105
012016091996TIMP3F      020TIM PART S/AON      NM   R$  000000000079300000000007930000000000780000000000078700000000007900000000000784000000000079000022000000000000000552000000000000434710000000000000009999123100000010000000000000BRTIMPACNOR1105
012016092096TIMP3F      020TIM PART S/AON      NM   R$  000000000078900000000007890000000000773000000000077900000000007730000000000773000000000079400024000000000000000699000000000000544668000000000000009999123100000010000000000000BRTIMPACNOR1105
012016092196TIMP3F      020TIM PART S/AON      NM   R$  000000000077800000000007850000000000765000000000077500000000007730000000000773000000000079900030000000000000000694000000000000538407000000000000009999123100000010000000000000BRTIMPACNOR1105
012016092296TIMP3F      020TIM PART S/AON      NM   R$  000000000077200000000007990000000000772000000000079000000000007900000000000790000000000079600053000000000000001339000000000001058000000000000000009999123100000010000000000000BRTIMPACNOR1105
012016092396TIMP3F      020TIM PART S/AON      NM   R$  000000000078800000000008000000000000786000000000079300000000007980000000000785000000000079800029000000000000000629000000000000499393000000000000009999123100000010000000000000BRTIMPACNOR1105
012016092696TIMP3F      020TIM PART S/AON      NM   R$  000000000078400000000007890000000000783000000000078400000000007880000000000783000000000078800010000000000000000215000000000000168764000000000000009999123100000010000000000000BRTIMPACNOR1105
012016092796TIMP3F      020TIM PART S/AON      NM   R$  000000000081900000000008190000000000781000000000078600000000007840000000000784000000000079200030000000000000000850000000000000668813000000000000009999123100000010000000000000BRTIMPACNOR1105
012016092896TIMP3F      020TIM PART S/AON      NM   R$  000000000079500000000008000000000000779000000000078900000000007790000000000779000000000083800027000000000000000738000000000000583026000000000000009999123100000010000000000000BRTIMPACNOR1105
012016092996TIMP3F      020TIM PART S/AON      NM   R$  000000000080000000000008100000000000777000000000079500000000007770000000000777000000000079600036000000000000000789000000000000627448000000000000009999123100000010000000000000BRTIMPACNOR1105
012016093096TIMP3F      020TIM PART S/AON      NM   R$  000000000078500000000008180000000000785000000000080200000000007940000000000794000000000080000037000000000000000595000000000000477202000000000000009999123100000010000000000000BRTIMPACNOR1105
012016100396TIMP3F      020TIM PART S/AON      NM   R$  000000000078600000000008080000000000786000000000080000000000008080000000000783000000000080800038000000000000001026000000000000820852000000000000009999123100000010000000000000BRTIMPACNOR1105
012016100496TIMP3F      020TIM PART S/AON      NM   R$  000000000077800000000008030000000000778000000000079500000000008020000000000779000000000080200044000000000000001496000000000001189676000000000000009999123100000010000000000000BRTIMPACNOR1105
012016100596TIMP3F      020TIM PART S/AON      NM   R$  000000000080700000000008190000000000804000000000081300000000008190000000000796000000000081900041000000000000000949000000000000772052000000000000009999123100000010000000000000BRTIMPACNOR1105
012016100696TIMP3F      020TIM PART S/AON      NM   R$  000000000081500000000008170000000000790000000000080500000000008030000000000803000000000080900026000000000000000783000000000000631226000000000000009999123100000010000000000000BRTIMPACNOR1105
012016100796TIMP3F      020TIM PART S/AON      NM   R$  000000000081100000000008280000000000790000000000082000000000008250000000000825000000000083000027000000000000000749000000000000614719000000000000009999123100000010000000000000BRTIMPACNOR1105
012016101096TIMP3F      020TIM PART S/AON      NM   R$  000000000082500000000008350000000000825000000000083000000000008290000000000829000000000083600017000000000000000518000000000000430329000000000000009999123100000010000000000000BRTIMPACNOR1105
012016101196TIMP3F      020TIM PART S/AON      NM   R$  000000000083100000000008400000000000827000000000083500000000008330000000000833000000000084000033000000000000000731000000000000610740000000000000009999123100000010000000000000BRTIMPACNOR1105
012016101396TIMP3F      020TIM PART S/AON      NM   R$  000000000083700000000008480000000000832000000000084000000000008470000000000834000000000084700031000000000000000863000000000000725779000000000000009999123100000010000000000000BRTIMPACNOR1105
012016101496TIMP3F      020TIM PART S/AON      NM   R$  000000000084000000000008500000000000840000000000084300000000008500000000000782000000000085000026000000000000000771000000000000650347000000000000009999123100000010000000000000BRTIMPACNOR1105
012016101796TIMP3F      020TIM PART S/AON      NM   R$  000000000078200000000008650000000000782000000000083800000000008500000000000837000000000085000027000000000000000898000000000000753315000000000000009999123100000010000000000000BRTIMPACNOR1105
012016101896TIMP3F      020TIM PART S/AON      NM   R$  000000000084300000000008700000000000842000000000085600000000008700000000000863000000000087000036000000000000000896000000000000767508000000000000009999123100000010000000000000BRTIMPACNOR1105
012016101996TIMP3F      020TIM PART S/AON      NM   R$  000000000089300000000008930000000000859000000000086500000000008610000000000861000000000087000016000000000000000360000000000000311562000000000000009999123100000010000000000000BRTIMPACNOR1105
012016102096TIMP3F      020TIM PART S/AON      NM   R$  000000000089400000000008940000000000853000000000086000000000008640000000000850000000000086400030000000000000000644000000000000554000000000000000009999123100000010000000000000BRTIMPACNOR1105
012016102196TIMP3F      020TIM PART S/AON      NM   R$  000000000085500000000008680000000000855000000000086500000000008680000000000868000000000087300010000000000000000229000000000000198097000000000000009999123100000010000000000000BRTIMPACNOR1105
012016102496TIMP3F      020TIM PART S/AON      NM   R$  000000000086500000000008780000000000857000000000086200000000008780000000000855000000000087800013000000000000000212000000000000182948000000000000009999123100000010000000000000BRTIMPACNOR1105
012016102596TIMP3F      020TIM PART S/AON      NM   R$  000000000086100000000008620000000000855000000000085700000000008550000000000853000000000085500013000000000000000407000000000000349203000000000000009999123100000010000000000000BRTIMPACNOR1105
012016102696TIMP3F      020TIM PART S/AON      NM   R$  000000000085600000000008710000000000854000000000086400000000008640000000000864000000000087500017000000000000000496000000000000428828000000000000009999123100000010000000000000BRTIMPACNOR1105
012016102796TIMP3F      020TIM PART S/AON      NM   R$  000000000087500000000008790000000000865000000000087300000000008790000000000868000000000087900020000000000000000480000000000000419397000000000000009999123100000010000000000000BRTIMPACNOR1105
012016102896TIMP3F      020TIM PART S/AON      NM   R$  000000000087300000000008810000000000872000000000087800000000008800000000000871000000000088000024000000000000000576000000000000506059000000000000009999123100000010000000000000BRTIMPACNOR1105
012016103196TIMP3F      020TIM PART S/AON      NM   R$  000000000087100000000008840000000000821000000000087800000000008780000000000846000000000088500039000000000000001022000000000000897962000000000000009999123100000010000000000000BRTIMPACNOR1105
012016110196TIMP3F      020TIM PART S/AON      NM   R$  000000000089900000000009450000000000872000000000089600000000008740000000000850000000000087400067000000000000002043000000000001831014000000000000009999123100000010000000000000BRTIMPACNOR1105
012016110396TIMP3F      020TIM PART S/AON      NM   R$  000000000087500000000008980000000000851000000000087300000000008510000000000851000000000086800034000000000000001133000000000000989196000000000000009999123100000010000000000000BRTIMPACNOR1105
012016110496TIMP3F      020TIM PART S/AON      NM   R$  000000000086000000000008690000000000858000000000086200000000008590000000000850000000000085900034000000000000001164000000000001003676000000000000009999123100000010000000000000BRTIMPACNOR1105
012016110796TIMP3F      020TIM PART S/AON      NM   R$  000000000085000000000008830000000000850000000000087500000000008830000000000878000000000088300029000000000000000888000000000000777814000000000000009999123100000010000000000000BRTIMPACNOR1105
012016110896TIMP3F      020TIM PART S/AON      NM   R$  000000000087800000000008860000000000832000000000087400000000008320000000000832000000000088000026000000000000000512000000000000447498000000000000009999123100000010000000000000BRTIMPACNOR1105
012016110996TIMP3F      020TIM PART S/AON      NM   R$  000000000084000000000008810000000000828000000000086600000000008770000000000821000000000087700027000000000000000764000000000000662255000000000000009999123100000010000000000000BRTIMPACNOR1105
012016111096TIMP3F      020TIM PART S/AON      NM   R$  000000000086000000000008600000000000820000000000083700000000008330000000000819000000000083300032000000000000000966000000000000808855000000000000009999123100000010000000000000BRTIMPACNOR1105
012016111196TIMP3F      020TIM PART S/AON      NM   R$  000000000080000000000008270000000000785000000000080000000000007950000000000781000000000079500037000000000000000822000000000000658188000000000000009999123100000010000000000000BRTIMPACNOR1105
012016111496TIMP3F      020TIM PART S/AON      NM   R$  000000000079500000000008120000000000794000000000080200000000008080000000000808000000000082000021000000000000000626000000000000502109000000000000009999123100000010000000000000BRTIMPACNOR1105
012016111696TIMP3F      020TIM PART S/AON      NM   R$  000000000082000000000008470000000000799000000000083700000000008460000000000784000000000084600040000000000000000974000000000000815532000000000000009999123100000010000000000000BRTIMPACNOR1105
012016111796TIMP3F      020TIM PART S/AON      NM   R$  000000000085000000000008500000000000826000000000083600000000008420000000000802000000000084200022000000000000000687000000000000575009000000000000009999123100000010000000000000BRTIMPACNOR1105
012016111896TIMP3F      020TIM PART S/AON      NM   R$  000000000082900000000008360000000000824000000000083100000000008360000000000827000000000083600031000000000000000966000000000000802877000000000000009999123100000010000000000000BRTIMPACNOR1105
012016112196TIMP3F      020TIM PART S/AON      NM   R$  000000000082700000000008490000000000801000000000083200000000008010000000000801000000000087000035000000000000001048000000000000872030000000000000009999123100000010000000000000BRTIMPACNOR1105
012016112296TIMP3F      020TIM PART S/AON      NM   R$  000000000084600000000008490000000000824000000000083400000000008490000000000781000000000084900030000000000000000890000000000000742870000000000000009999123100000010000000000000BRTIMPACNOR1105
012016112396TIMP3F      020TIM PART S/AON      NM   R$  000000000080200000000008740000000000802000000000083400000000008740000000000783000000000087400014000000000000000336000000000000280280000000000000009999123100000010000000000000BRTIMPACNOR1105
012016112496TIMP3F      020TIM PART S/AON      NM   R$  000000000083000000000008300000000000817000000000082200000000008170000000000817000000000090000016000000000000000375000000000000308404000000000000009999123100000010000000000000BRTIMPACNOR1105
012016112596TIMP3F      020TIM PART S/AON      NM   R$  000000000079800000000008680000000000796000000000081900000000008680000000000795000000000086800017000000000000000470000000000000385228000000000000009999123100000010000000000000BRTIMPACNOR1105
012016112896TIMP3F      020TIM PART S/AON      NM   R$  000000000081800000000008320000000000809000000000082200000000008240000000000824000000000087400025000000000000000727000000000000598233000000000000009999123100000010000000000000BRTIMPACNOR1105
012016112996TIMP3F      020TIM PART S/AON      NM   R$  000000000081600000000008290000000000813000000000081900000000008200000000000805000000000082000031000000000000000825000000000000676224000000000000009999123100000010000000000000BRTIMPACNOR1105
012016113096TIMP3F      020TIM PART S/AON      NM   R$  000000000082600000000008350000000000820000000000082700000000008300000000000826000000000083000040000000000000001282000000000001060359000000000000009999123100000010000000000000BRTIMPACNOR1105
012016120196TIMP3F      020TIM PART S/AON      NM   R$  000000000083000000000008300000000000780000000000079200000000007920000000000772000000000079200047000000000000001518000000000001203372000000000000009999123100000010000000000000BRTIMPACNOR1105
012016120296TIMP3F      020TIM PART S/AON      NM   R$  000000000078000000000008020000000000763000000000077400000000007910000000000791000000000082700047000000000000001681000000000001302502000000000000009999123100000010000000000000BRTIMPACNOR1105
012016120596TIMP3F      020TIM PART S/AON      NM   R$  000000000079500000000007980000000000771000000000079000000000007710000000000771000000000079200019000000000000000370000000000000292443000000000000009999123100000010000000000000BRTIMPACNOR1105
012016120696TIMP3F      020TIM PART S/AON      NM   R$  000000000078000000000008160000000000780000000000080600000000007990000000000799000000000088000023000000000000000916000000000000738325000000000000009999123100000010000000000000BRTIMPACNOR1105
012016120796TIMP3F      020TIM PART S/AON      NM   R$  000000000079100000000008260000000000791000000000082000000000008180000000000818000000000082900054000000000000001633000000000001340530000000000000009999123100000010000000000000BRTIMPACNOR1105
012016120896TIMP3F      020TIM PART S/AON      NM   R$  000000000082000000000008340000000000819000000000082400000000008300000000000791000000000083000018000000000000000652000000000000537894000000000000009999123100000010000000000000BRTIMPACNOR1105
012016120996TIMP3F      020TIM PART S/AON      NM   R$  000000000083000000000008300000000000803000000000081100000000008070000000000807000000000082900037000000000000000537000000000000435783000000000000009999123100000010000000000000BRTIMPACNOR1105
012016121296TIMP3F      020TIM PART S/AON      NM   R$  000000000080600000000008060000000000760000000000079300000000007600000000000760000000000080300033000000000000000679000000000000539107000000000000009999123100000010000000000000BRTIMPACNOR1105
012016121396TIMP3F      020TIM PART S/AON      NM   R$  000000000079000000000008080000000000780000000000078600000000007800000000000718000000000078000031000000000000000830000000000000652399000000000000009999123100000010000000000000BRTIMPACNOR1105
012016121496TIMP3F      020TIM PART S/AON      NM   R$  000000000077800000000007810000000000761000000000077400000000007610000000000761000000000080500047000000000000001307000000000001011662000000000000009999123100000010000000000000BRTIMPACNOR1105
012016121596TIMP3F      020TIM PART S/AON      NM   R$  000000000075500000000007750000000000750000000000076800000000007740000000000761000000000080500028000000000000000903000000000000694153000000000000009999123100000010000000000000BRTIMPACNOR1105
012016121696TIMP3F      020TIM PART S/AON      NM   R$  000000000077500000000007840000000000768000000000077800000000007800000000000779000000000078000042000000000000000870000000000000677208000000000000009999123100000010000000000000BRTIMPACNOR1105
012016121996TIMP3F      020TIM PART S/AON      NM   R$  000000000078000000000007800000000000750000000000076300000000007500000000000750000000000079900040000000000000001010000000000000770777000000000000009999123100000010000000000000BRTIMPACNOR1105
012016122096TIMP3F      020TIM PART S/AON      NM   R$  000000000076600000000007990000000000762000000000076800000000007990000000000752000000000079900025000000000000000602000000000000462461000000000000009999123100000010000000000000BRTIMPACNOR1105
012016122196TIMP3F      020TIM PART S/AON      NM   R$  000000000077800000000007810000000000759000000000077200000000007590000000000759000000000079800041000000000000001160000000000000895912000000000000009999123100000010000000000000BRTIMPACNOR1105
012016122296TIMP3F      020TIM PART S/AON      NM   R$  000000000076100000000007990000000000744000000000078000000000007990000000000756000000000079900026000000000000000643000000000000501849000000000000009999123100000010000000000000BRTIMPACNOR1105
012016122396TIMP3F      020TIM PART S/AON      NM   R$  000000000076300000000007990000000000758000000000076800000000007990000000000763000000000079900022000000000000000700000000000000537903000000000000009999123100000010000000000000BRTIMPACNOR1105
012016122696TIMP3F      020TIM PART S/AON      NM   R$  000000000076300000000007670000000000761000000000076300000000007640000000000764000000000077600018000000000000000432000000000000329860000000000000009999123100000010000000000000BRTIMPACNOR1105
012016122796TIMP3F      020TIM PART S/AON      NM   R$  000000000076400000000007690000000000761000000000076400000000007610000000000761000000000080000015000000000000000525000000000000401499000000000000009999123100000010000000000000BRTIMPACNOR1105
012016122896TIMP3F      020TIM PART S/AON      NM   R$  000000000077200000000007790000000000772000000000077300000000007730000000000763000000000077300009000000000000000230000000000000177972000000000000009999123100000010000000000000BRTIMPACNOR1105
012016122996TIMP3F      020TIM PART S/AON      NM   R$  000000000077100000000008100000000000762000000000077600000000007710000000000766000000000077100033000000000000000773000000000000600436000000000000009999123100000010000000000000BRTIMPACNOR1105
012015010296TIMP3F      020TIM PART S/AON      NM   R$  000000000113200000000012430000000001132000000000117800000000011760000000001176000000000125000041000000000000001313000000000001547500000000000000009999123100000010000000000000BRTIMPACNOR1103
012015010596TIMP3F      020TIM PART S/AON      NM   R$  000000000119000000000011900000000001120000000000115200000000011200000000001120000000000114000123000000000000002732000000000003148149000000000000009999123100000010000000000000BRTIMPACNOR1103
012015010696TIMP3F      020TIM PART S/AON      NM   R$  000000000114900000000011880000000001108000000000114400000000011880000000001136000000000118800022000000000000000637000000000000729353000000000000009999123100000010000000000000BRTIMPACNOR1103
012015010796TIMP3F      020TIM PART S/AON      NM   R$  000000000114900000000011890000000001118000000000114500000000011180000000001118000000000119000047000000000000001269000000000001454125000000000000009999123100000010000000000000BRTIMPACNOR1103
012015010896TIMP3F      020TIM PART S/AON      NM   R$  000000000114000000000012190000000001140000000000118000000000011740000000001174000000000121800092000000000000001891000000000002232690000000000000009999123100000010000000000000BRTIMPACNOR1103
012015010996TIMP3F      020TIM PART S/AON      NM   R$  000000000119700000000011970000000001134000000000117100000000011340000000001134000000000116900026000000000000000457000000000000535379000000000000009999123100000010000000000000BRTIMPACNOR1103
012015011296TIMP3F      020TIM PART S/AON      NM   R$  000000000115000000000011760000000001130000000000116000000000011300000000001130000000000116700020000000000000000443000000000000514081000000000000009999123100000010000000000000BRTIMPACNOR1103
012015011396TIMP3F      020TIM PART S/AON      NM   R$  000000000118300000000011880000000001150000000000116600000000011880000000001165000000000118800046000000000000000811000000000000945861000000000000009999123100000010000000000000BRTIMPACNOR1103
012015011496TIMP3F      020TIM PART S/AON      NM   R$  000000000115100000000011910000000001147000000000116600000000011830000000001146000000000118300031000000000000000976000000000001138877000000000000009999123100000010000000000000BRTIMPACNOR1103
012015011596TIMP3F      020TIM PART S/AON      NM   R$  000000000117400000000012020000000001169000000000118500000000011980000000001113000000000119800052000000000000001039000000000001231562000000000000009999123100000010000000000000BRTIMPACNOR1103
012015011696TIMP3F      020TIM PART S/AON      NM   R$  000000000118300000000012110000000001181000000000119800000000012000000000001180000000000120000039000000000000000909000000000001089194000000000000009999123100000010000000000000BRTIMPACNOR1103
012015011996TIMP3F      020TIM PART S/AON      NM   R$  000000000118000000000011800000000001114000000000116000000000011140000000001114000000000115700021000000000000000575000000000000667092000000000000009999123100000010000000000000BRTIMPACNOR1103
012015012096TIMP3F      020TIM PART S/AON      NM   R$  000000000116400000000011940000000001116000000000117600000000011810000000001181000000000118800026000000000000000655000000000000770707000000000000009999123100000010000000000000BRTIMPACNOR1103
012015012196TIMP3F      020TIM PART S/AON      NM   R$  000000000111500000000012270000000001115000000000119900000000012140000000001214000000000122800058000000000000001244000000000001495179000000000000009999123100000010000000000000BRTIMPACNOR1103
012015012296TIMP3F      020TIM PART S/AON      NM   R$  000000000124300000000012460000000001224000000000123300000000012250000000001225000000000124100041000000000000000843000000000001039627000000000000009999123100000010000000000000BRTIMPACNOR1103
012015012396TIMP3F      020TIM PART S/AON      NM   R$  000000000123000000000012700000000001200000000000124400000000012000000000001200000000000124000032000000000000000833000000000001036518000000000000009999123100000010000000000000BRTIMPACNOR1103
012015012696TIMP3F      020TIM PART S/AON      NM   R$  000000000121600000000012280000000001202000000000121200000000012020000000001202000000000123100026000000000000000819000000000000992959000000000000009999123100000010000000000000BRTIMPACNOR1103
012015012796TIMP3F      020TIM PART S/AON      NM   R$  000000000122000000000012290000000001179000000000120500000000012290000000001189000000000122900035000000000000000713000000000000859809000000000000009999123100000010000000000000BRTIMPACNOR1103
012015012896TIMP3F      020TIM PART S/AON      NM   R$  000000000119000000000012270000000001190000000000120700000000011990000000001199000000000123400047000000000000000992000000000001197579000000000000009999123100000010000000000000BRTIMPACNOR1103
012015012996TIMP3F      020TIM PART S/AON      NM   R$  000000000120000000000012340000000001191000000000120700000000011910000000001191000000000123500049000000000000001191000000000001438184000000000000009999123100000010000000000000BRTIMPACNOR1103
012015013096TIMP3F      020TIM PART S/AON      NM   R$  000000000120400000000012100000000001141000000000119800000000011410000000001141000000000118700074000000000000000587000000000000703325000000000000009999123100000010000000000000BRTIMPACNOR1103
012015020296TIMP3F      020TIM PART S/AON      NM   R$  000000000119300000000012900000000001179000000000121500000000012900000000001168000000000129000069000000000000000909000000000001104795000000000000009999123100000010000000000000BRTIMPACNOR1103
012015020396TIMP3F      020TIM PART S/AON      NM   R$  000000000121800000000012370000000001210000000000122100000000012320000000001196000000000123200061000000000000001215000000000001484437000000000000009999123100000010000000000000BRTIMPACNOR1103
012015020496TIMP3F      020TIM PART S/AON      NM   R$  000000000121700000000012290000000001180000000000120200000000012290000000001210000000000122900057000000000000000819000000000000984933000000000000009999123100000010000000000000BRTIMPACNOR1103
012015020596TIMP3F      020TIM PART S/AON      NM   R$  000000000122000000000012360000000001175000000000121500000000012250000000001175000000000123000062000000000000001003000000000001219324000000000000009999123100000010000000000000BRTIMPACNOR1103
012015020696TIMP3F      020TIM PART S/AON      NM   R$  000000000119900000000012740000000001188000000000120800000000012740000000001192000000000127400044000000000000000750000000000000907963000000000000009999123100000010000000000000BRTIMPACNOR1103
012015020996TIMP3F      020TIM PART S/AON      NM   R$  000000000121300000000012350000000001192000000000120900000000011920000000001192000000000123600035000000000000000573000000000000692690000000000000009999123100000010000000000000BRTIMPACNOR1103
012015021096TIMP3F      020TIM PART S/AON      NM   R$  000000000120700000000012220000000001197000000000120700000000011970000000001197000000000121000032000000000000000400000000000000483002000000000000009999123100000010000000000000BRTIMPACNOR1103
012015021196TIMP3F      020TIM PART S/AON      NM   R$  000000000120000000000012770000000001190000000000122500000000012770000000001231000000000127700021000000000000000543000000000000666221000000000000009999123100000010000000000000BRTIMPACNOR1103
012015021296TIMP3F      020TIM PART S/AON      NM   R$  000000000125500000000012550000000001201000000000123800000000012390000000001200000000000124000028000000000000000982000000000001216232000000000000009999123100000010000000000000BRTIMPACNOR1103
012015021396TIMP3F      020TIM PART S/AON      NM   R$  000000000124200000000012760000000001231000000000124700000000012310000000001231000000000128000029000000000000000690000000000000860888000000000000009999123100000010000000000000BRTIMPACNOR1103
012015021896TIMP3F      020TIM PART S/AON      NM   R$  000000000128300000000013020000000001234000000000128400000000012810000000001281000000000130300036000000000000001082000000000001389832000000000000009999123100000010000000000000BRTIMPACNOR1103
012015021996TIMP3F      020TIM PART S/AON      NM   R$  000000000126600000000012990000000001263000000000127300000000012990000000001262000000000129900019000000000000000534000000000000680954000000000000009999123100000010000000000000BRTIMPACNOR1103
012015022096TIMP3F      020TIM PART S/AON      NM   R$  000000000126800000000012940000000001234000000000126000000000012340000000001234000000000129500071000000000000001208000000000001521773000000000000009999123100000010000000000000BRTIMPACNOR1103
012015022396TIMP3F      020TIM PART S/AON      NM   R$  000000000122100000000012500000000001175000000000120200000000011750000000001175000000000124400045000000000000001150000000000001382689000000000000009999123100000010000000000000BRTIMPACNOR1103
012015022496TIMP3F      020TIM PART S/AON      NM   R$  000000000118000000000011920000000001162000000000117300000000011920000000001176000000000119200066000000000000001047000000000001228663000000000000009999123100000010000000000000BRTIMPACNOR1103
012015022596TIMP3F      020TIM PART S/AON      NM   R$  000000000116500000000012000000000001165000000000119200000000011890000000001189000000000120100015000000000000000389000000000000463660000000000000009999123100000010000000000000BRTIMPACNOR1103
012015022696TIMP3F      020TIM PART S/AON      NM   R$  000000000120000000000012050000000001190000000000119600000000011900000000001190000000000121900025000000000000000636000000000000761143000000000000009999123100000010000000000000BRTIMPACNOR1103
012015022796TIMP3F      020TIM PART S/AON      NM   R$  000000000120500000000012260000000001187000000000120600000000012000000000001185000000000120000063000000000000001271000000000001532855000000000000009999123100000010000000000000BRTIMPACNOR1103
012015030296TIMP3F      020TIM PART S/AON      NM   R$  000000000118500000000012380000000001185000000000121200000000012380000000001180000000000123800024000000000000000720000000000000872735000000000000009999123100000010000000000000BRTIMPACNOR1103
012015030396TIMP3F      020TIM PART S/AON      NM   R$  000000000115900000000012130000000001159000000000119200000000012030000000001185000000000120300019000000000000000645000000000000768875000000000000009999123100000010000000000000BRTIMPACNOR1103
012015030496TIMP3F      020TIM PART S/AON      NM   R$  000000000115800000000012370000000001158000000000117600000000011790000000001157000000000117900036000000000000000961000000000001131065000000000000009999123100000010000000000000BRTIMPACNOR1103
012015030596TIMP3F      020TIM PART S/AON      NM   R$  000000000117700000000011990000000001159000000000117900000000011590000000001159000000000120000032000000000000000462000000000000544878000000000000009999123100000010000000000000BRTIMPACNOR1103
012015030696TIMP3F      020TIM PART S/AON      NM   R$  000000000119000000000012010000000001157000000000118200000000011570000000001157000000000116300042000000000000001249000000000001474171000000000000009999123100000010000000000000BRTIMPACNOR1103
012015030996TIMP3F      020TIM PART S/AON      NM   R$  000000000118300000000011830000000001132000000000115600000000011670000000001150000000000116700032000000000000000894000000000001033718000000000000009999123100000010000000000000BRTIMPACNOR1103
012015031096TIMP3F      020TIM PART S/AON      NM   R$  000000000113100000000011590000000001101000000000114400000000011010000000001101000000000114700046000000000000001613000000000001844961000000000000009999123100000010000000000000BRTIMPACNOR1103
012015031196TIMP3F      020TIM PART S/AON      NM   R$  000000000115600000000011840000000001108000000000114900000000011090000000001109000000000115500039000000000000001161000000000001334847000000000000009999123100000010000000000000BRTIMPACNOR1103
012015031296TIMP3F      020TIM PART S/AON      NM   R$  000000000118400000000012480000000001170000000000119100000000012480000000001168000000000124800016000000000000000569000000000000678190000000000000009999123100000010000000000000BRTIMPACNOR1103
012015031396TIMP3F      020TIM PART S/AON      NM   R$  000000000116700000000011960000000001131000000000116800000000011960000000001131000000000119800039000000000000001317000000000001538599000000000000009999123100000010000000000000BRTIMPACNOR1103
012015031696TIMP3F      020TIM PART S/AON      NM   R$  000000000119600000000012490000000001179000000000119400000000012490000000001198000000000124900052000000000000001362000000000001626693000000000000009999123100000010000000000000BRTIMPACNOR1103
012015031796TIMP3F      020TIM PART S/AON      NM   R$  000000000120000000000012220000000001148000000000120500000000012000000000001150000000000120000073000000000000002154000000000002596528000000000000009999123100000010000000000000BRTIMPACNOR1103
012015031896TIMP3F      020TIM PART S/AON      NM   R$  000000000120300000000012280000000001192000000000121400000000011920000000001192000000000123000030000000000000000781000000000000948160000000000000009999123100000010000000000000BRTIMPACNOR1103
012015031996TIMP3F      020TIM PART S/AON      NM   R$  000000000121200000000012200000000001164000000000117900000000011640000000001164000000000117600026000000000000000687000000000000810328000000000000009999123100000010000000000000BRTIMPACNOR1103
012015032096TIMP3F      020TIM PART S/AON      NM   R$  000000000119800000000011980000000001121000000000114400000000011390000000001136000000000113900109000000000000002471000000000002827773000000000000009999123100000010000000000000BRTIMPACNOR1103
012015032396TIMP3F      020TIM PART S/AON      NM   R$  000000000113500000000011530000000001130000000000114200000000011530000000001121000000000115300044000000000000000826000000000000943318000000000000009999123100000010000000000000BRTIMPACNOR1103
012015032496TIMP3F      020TIM PART S/AON      NM   R$  000000000113800000000011870000000001125000000000114000000000011870000000001120000000000118700038000000000000001153000000000001316419000000000000009999123100000010000000000000BRTIMPACNOR1103
012015032596TIMP3F      020TIM PART S/AON      NM   R$  000000000113800000000011560000000001123000000000114300000000011230000000001123000000000118000045000000000000001070000000000001222705000000000000009999123100000010000000000000BRTIMPACNOR1103
012015032696TIMP3F      020TIM PART S/AON      NM   R$  000000000113800000000011380000000001001000000000108600000000010780000000001076000000000107800078000000000000001888000000000002050115000000000000009999123100000010000000000000BRTIMPACNOR1103
012015032796TIMP3F      020TIM PART S/AON      NM   R$  000000000105000000000010800000000001050000000000106100000000010560000000001056000000000107000044000000000000000802000000000000851555000000000000009999123100000010000000000000BRTIMPACNOR1103
012015033096TIMP3F      020TIM PART S/AON      NM   R$  000000000101600000000010950000000001016000000000108100000000010780000000001078000000000108500039000000000000001184000000000001280601000000000000009999123100000010000000000000BRTIMPACNOR1103
012015033196TIMP3F      020TIM PART S/AON      NM   R$  000000000107300000000010800000000001046000000000106100000000010600000000001051000000000107000034000000000000001131000000000001200108000000000000009999123100000010000000000000BRTIMPACNOR1103
012015040196TIMP3F      020TIM PART S/AON      NM   R$  000000000106300000000010890000000001036000000000105300000000010360000000001036000000000106700041000000000000000976000000000001027857000000000000009999123100000010000000000000BRTIMPACNOR1103
012015040296TIMP3F      020TIM PART S/AON      NM   R$  000000000105700000000010780000000001037000000000105800000000010370000000001037000000000107200037000000000000001052000000000001114059000000000000009999123100000010000000000000BRTIMPACNOR1103
012015040696TIMP3F      020TIM PART S/AON      NM   R$  000000000105500000000010600000000001028000000000103900000000010370000000001027000000000103700066000000000000001633000000000001696925000000000000009999123100000010000000000000BRTIMPACNOR1103
012015040796TIMP3F      020TIM PART S/AON      NM   R$  000000000103400000000010350000000001010000000000102100000000010350000000001014000000000103500055000000000000001287000000000001314860000000000000009999123100000010000000000000BRTIMPACNOR1103
012015040896TIMP3F      020TIM PART S/AON      NM   R$  000000000104300000000010550000000001020000000000103300000000010480000000001026000000000104800080000000000000001636000000000001690299000000000000009999123100000010000000000000BRTIMPACNOR1103
012015040996TIMP3F      020TIM PART S/AON      NM   R$  000000000103300000000010700000000001028000000000104800000000010700000000001028000000000107000033000000000000000656000000000000687505000000000000009999123100000010000000000000BRTIMPACNOR1103
012015041096TIMP3F      020TIM PART S/AON      NM   R$  000000000103700000000010550000000001020000000000104100000000010420000000001042000000000104800053000000000000001116000000000001162853000000000000009999123100000010000000000000BRTIMPACNOR1103
012015041396TIMP3F      020TIM PART S/AON      NM   R$  000000000104100000000010660000000001034000000000105000000000010660000000001033000000000106600039000000000000000946000000000000993537000000000000009999123100000010000000000000BRTIMPACNOR1103
012015041496TIMP3F      020TIM PART S/AON      NM   R$  000000000107700000000010770000000001013000000000102400000000010440000000001016000000000104400046000000000000001139000000000001166489000000000000009999123100000010000000000000BRTIMPACNOR1103
012015041596TIMP3F      020TIM PART S/AON      NM   R$  000000000101500000000010220000000001012000000000101600000000010220000000001012000000000102200042000000000000001107000000000001125861000000000000009999123100000010000000000000BRTIMPACNOR1103
012015041696TIMP3F      020TIM PART S/AON      NM   R$  000000000102400000000010260000000001002000000000101300000000010150000000001001000000000101500049000000000000001030000000000001043488000000000000009999123100000010000000000000BRTIMPACNOR1103
012015041796TIMP3F      020TIM PART S/AON      NM   R$  000000000101400000000010180000000000988000000000100200000000009880000000000988000000000101800051000000000000001083000000000001085903000000000000009999123100000010000000000000BRTIMPACNOR1103
012015042096TIMP3F      020TIM PART S/AON      NM   R$  000000000097600000000010230000000000976000000000100600000000010220000000001010000000000102200031000000000000000573000000000000576529000000000000009999123100000010000000000000BRTIMPACNOR1103
012015042296TIMP3F      020TIM PART S/AON      NM   R$  000000000102900000000010290000000001001000000000101600000000010170000000001010000000000101700031000000000000000590000000000000599792000000000000009999123100000010000000000000BRTIMPACNOR1103
012015042396TIMP3F      020TIM PART S/AON      NM   R$  000000000102000000000010200000000000998000000000101300000000010100000000001010000000000101900024000000000000000485000000000000491474000000000000009999123100000010000000000000BRTIMPACNOR1103
012015042496TIMP3F      020TIM PART S/AON      NM   R$  000000000101600000000010360000000001013000000000102500000000010360000000001023000000000103600049000000000000001197000000000001227925000000000000009999123100000010000000000000BRTIMPACNOR1103
012015042796TIMP3F      020TIM PART S/AON      NM   R$  000000000108900000000010890000000001016000000000103200000000010160000000001016000000000102200037000000000000000889000000000000917580000000000000009999123100000010000000000000BRTIMPACNOR1103
012015042896TIMP3F      020TIM PART S/AON      NM   R$  000000000103000000000010320000000000983000000000100500000000010100000000001000000000000101000070000000000000002193000000000002204021000000000000009999123100000010000000000000BRTIMPACNOR1103
012015042996TIMP3F      020TIM PART S/AON      NM   R$  000000000099000000000010340000000000980000000000098800000000010000000000000980000000000100000039000000000000001093000000000001080825000000000000009999123100000010000000000000BRTIMPACNOR1103
012015043096TIMP3F      020TIM PART S/AON      NM   R$  000000000098000000000010480000000000955000000000098200000000009950000000000961000000000099500068000000000000001306000000000001283705000000000000009999123100000010000000000000BRTIMPACNOR1103
012015050496TIMP3F      020TIM PART S/AON      NM   R$  000000000096100000000009780000000000948000000000096400000000009780000000000967000000000097800068000000000000001753000000000001691768000000000000009999123100000010000000000000BRTIMPACNOR1103
012015050596TIMP3F      020TIM PART S/AON      NM   R$  000000000097800000000009980000000000955000000000097100000000009860000000000975000000000098600041000000000000001360000000000001321863000000000000009999123100000010000000000000BRTIMPACNOR1103
012015050696TIMP3F      020TIM PART S/AON      NM   R$  000000000097000000000009810000000000904000000000093200000000009250000000000905000000000092500087000000000000002090000000000001948111000000000000009999123100000010000000000000BRTIMPACNOR1103
012015050796TIMP3F      020TIM PART S/AON      NM   R$  000000000091200000000009300000000000884000000000090000000000008840000000000884000000000090000078000000000000001616000000000001455454000000000000009999123100000010000000000000BRTIMPACNOR1103
012015050896TIMP3F      020TIM PART S/AON      NM   R$  000000000089400000000009060000000000883000000000089500000000008880000000000888000000000090400050000000000000001367000000000001224594000000000000009999123100000010000000000000BRTIMPACNOR1103
012015051196TIMP3F      020TIM PART S/AON      NM   R$  000000000092500000000009250000000000903000000000091600000000009250000000000909000000000092500041000000000000000903000000000000827378000000000000009999123100000010000000000000BRTIMPACNOR1103
012015051296TIMP3F      020TIM PART S/AON      NM   R$  000000000090600000000009200000000000890000000000090800000000008900000000000890000000000091000046000000000000000729000000000000662270000000000000009999123100000010000000000000BRTIMPACNOR1103
012015051396TIMP3F      020TIM PART S/AON  ED  NM   R$  000000000090200000000009020000000000863000000000088400000000008900000000000890000000000090000062000000000000001454000000000001286002000000000000009999123100000010000000000000BRTIMPACNOR1104
012015051496TIMP3F      020TIM PART S/AON  ED  NM   R$  000000000089300000000009000000000000880000000000089000000000008860000000000879000000000088600035000000000000000898000000000000799271000000000000009999123100000010000000000000BRTIMPACNOR1104
012015051596TIMP3F      020TIM PART S/AON  ED  NM   R$  000000000089700000000009030000000000879000000000089400000000009030000000000884000000000093200062000000000000001556000000000001392059000000000000009999123100000010000000000000BRTIMPACNOR1104
012015051896TIMP3F      020TIM PART S/AON  ED  NM   R$  000000000090000000000009000000000000865000000000087700000000008650000000000865000000000088400047000000000000000952000000000000835092000000000000009999123100000010000000000000BRTIMPACNOR1104
012015051996TIMP3F      020TIM PART S/AON  ED  NM   R$  000000000087200000000008880000000000865000000000087600000000008880000000000878000000000088800059000000000000001339000000000001173330000000000000009999123100000010000000000000BRTIMPACNOR1104
012015052096TIMP3F      020TIM PART S/AON  ED  NM   R$  000000000089000000000009370000000000878000000000092700000000009360000000000932000000000093600057000000000000001659000000000001538887000000000000009999123100000010000000000000BRTIMPACNOR1104
012015052196TIMP3F      020TIM PART S/AON  ED  NM   R$  000000000095700000000009580000000000932000000000094500000000009460000000000918000000000094600032000000000000000944000000000000892401000000000000009999123100000010000000000000BRTIMPACNOR1104
012015052296TIMP3F      020TIM PART S/AON  ED  NM   R$  000000000094000000000009520000000000920000000000093400000000009200000000000920000000000097500041000000000000000858000000000000801462000000000000009999123100000010000000000000BRTIMPACNOR1104
012015052596TIMP3F      020TIM PART S/AON      NM   R$  000000000092200000000009220000000000902000000000091200000000009090000000000909000000000092900030000000000000000599000000000000545339000000000000009999123100000010000000000000BRTIMPACNOR1104
012015052696TIMP3F      020TIM PART S/AON      NM   R$  000000000090600000000009360000000000906000000000092800000000009290000000000929000000000093200037000000000000000980000000000000910243000000000000009999123100000010000000000000BRTIMPACNOR1104
012015052796TIMP3F      020TIM PART S/AON      NM   R$  000000000093700000000009960000000000926000000000094600000000009960000000000929000000000099600052000000000000001103000000000001044216000000000000009999123100000010000000000000BRTIMPACNOR1104
012015052896TIMP3F      020TIM PART S/AON      NM   R$  000000000093700000000009420000000000896000000000092800000000009250000000000925000000000094400052000000000000001120000000000001039712000000000000009999123100000010000000000000BRTIMPACNOR1104
012015052996TIMP3F      020TIM PART S/AON      NM   R$  000000000094400000000009860000000000927000000000094300000000009270000000000927000000000094800039000000000000001422000000000001341788000000000000009999123100000010000000000000BRTIMPACNOR1104
012015060196TIMP3F      020TIM PART S/AON      NM   R$  000000000093400000000009540000000000934000000000094700000000009530000000000934000000000095300048000000000000001260000000000001194129000000000000009999123100000010000000000000BRTIMPACNOR1104
012015060296TIMP3F      020TIM PART S/AON      NM   R$  000000000095700000000009940000000000957000000000098000000000009700000000000970000000000098700060000000000000001421000000000001393391000000000000009999123100000010000000000000BRTIMPACNOR1104
012015060396TIMP3F      020TIM PART S/AON      NM   R$  000000000098400000000010170000000000984000000000100600000000010120000000001012000000000101500061000000000000001849000000000001860433000000000000009999123100000010000000000000BRTIMPACNOR1104
012015060596TIMP3F      020TIM PART S/AON      NM   R$  000000000101500000000010150000000000950000000000098100000000009770000000000977000000000101500056000000000000001153000000000001131238000000000000009999123100000010000000000000BRTIMPACNOR1104
012015060896TIMP3F      020TIM PART S/AON      NM   R$  000000000098000000000009900000000000971000000000097600000000009750000000000975000000000098000032000000000000000695000000000000678473000000000000009999123100000010000000000000BRTIMPACNOR1104
012015060996TIMP3F      020TIM PART S/AON      NM   R$  000000000098000000000009820000000000965000000000097300000000009770000000000977000000000100000056000000000000001161000000000001129931000000000000009999123100000010000000000000BRTIMPACNOR1104
012015061096TIMP3F      020TIM PART S/AON      NM   R$  000000000098900000000009990000000000951000000000098500000000009510000000000951000000000099200039000000000000000888000000000000874183000000000000009999123100000010000000000000BRTIMPACNOR1104
012015061196TIMP3F      020TIM PART S/AON      NM   R$  000000000098700000000009970000000000973000000000098700000000009730000000000973000000000099200066000000000000001726000000000001703857000000000000009999123100000010000000000000BRTIMPACNOR1104
012015061296TIMP3F      020TIM PART S/AON      NM   R$  000000000096200000000009810000000000955000000000096500000000009700000000000965000000000097000075000000000000001880000000000001815776000000000000009999123100000010000000000000BRTIMPACNOR1104
012015061596TIMP3F      020TIM PART S/AON      NM   R$  000000000096100000000009610000000000930000000000094500000000009570000000000951000000000095700033000000000000000697000000000000659271000000000000009999123100000010000000000000BRTIMPACNOR1104
012015061696TIMP3F      020TIM PART S/AON      NM   R$  000000000094300000000009650000000000943000000000095800000000009570000000000957000000000099900035000000000000000790000000000000756919000000000000009999123100000010000000000000BRTIMPACNOR1104
012015061796TIMP3F      020TIM PART S/AON      NM   R$  000000000098300000000010120000000000983000000000100100000000009910000000000991000000000100500070000000000000001995000000000001997607000000000000009999123100000010000000000000BRTIMPACNOR1104
012015061896TIMP3F      020TIM PART S/AON      NM   R$  000000000099600000000010610000000000991000000000104000000000010400000000001040000000000105000133000000000000003858000000000004012467000000000000009999123100000010000000000000BRTIMPACNOR1104
012015061996TIMP3F      020TIM PART S/AON      NM   R$  000000000105000000000010650000000001026000000000104000000000010650000000001050000000000106500070000000000000001937000000000002016500000000000000009999123100000010000000000000BRTIMPACNOR1104
012015062296TIMP3F      020TIM PART S/AON      NM   R$  000000000103200000000010480000000001002000000000103200000000010020000000001002000000000104400082000000000000001819000000000001876153000000000000009999123100000010000000000000BRTIMPACNOR1104
012015062396TIMP3F      020TIM PART S/AON      NM   R$  000000000104400000000010500000000001009000000000102900000000010090000000001009000000000102300055000000000000001106000000000001135615000000000000009999123100000010000000000000BRTIMPACNOR1104
012015062496TIMP3F      020TIM PART S/AON      NM   R$  000000000100500000000010490000000001005000000000102600000000010490000000001036000000000104900064000000000000001159000000000001190302000000000000009999123100000010000000000000BRTIMPACNOR1104
012015062596TIMP3F      020TIM PART S/AON      NM   R$  000000000105000000000010750000000001041000000000105700000000010620000000001051000000000106200083000000000000001743000000000001843853000000000000009999123100000010000000000000BRTIMPACNOR1104
012015062696TIMP3F      020TIM PART S/AON      NM   R$  000000000106100000000010680000000001041000000000105700000000010440000000001044000000000106300039000000000000000919000000000000971663000000000000009999123100000010000000000000BRTIMPACNOR1104
012015062996TIMP3F      020TIM PART S/AON      NM   R$  000000000105500000000010550000000001002000000000102500000000010120000000001012000000000101800068000000000000001633000000000001674183000000000000009999123100000010000000000000BRTIMPACNOR1104
012015063096TIMP3F      020TIM PART S/AON      NM   R$  000000000103000000000010450000000001002000000000101300000000010450000000001018000000000104500090000000000000001776000000000001799960000000000000009999123100000010000000000000BRTIMPACNOR1104
012015070196TIMP3F      020TIM PART S/AON      NM   R$  000000000102800000000010280000000001002000000000101300000000010020000000001002000000000102800077000000000000001532000000000001552150000000000000009999123100000010000000000000BRTIMPACNOR1104
012015070296TIMP3F      020TIM PART S/AON      NM   R$  000000000101500000000010470000000001015000000000103400000000010330000000001033000000000108100026000000000000000718000000000000742697000000000000009999123100000010000000000000BRTIMPACNOR1104
012015070396TIMP3F      020TIM PART S/AON      NM   R$  000000000102600000000010380000000001013000000000102100000000010140000000001014000000000102900053000000000000001426000000000001457143000000000000009999123100000010000000000000BRTIMPACNOR1104
012015070696TIMP3F      020TIM PART S/AON      NM   R$  000000000101100000000010300000000001007000000000101900000000010220000000001023000000000102600050000000000000001025000000000001044964000000000000009999123100000010000000000000BRTIMPACNOR1104
012015070796TIMP3F      020TIM PART S/AON      NM   R$  000000000101000000000010260000000000964000000000100900000000010020000000001002000000000103000072000000000000001971000000000001989406000000000000009999123100000010000000000000BRTIMPACNOR1104
012015070896TIMP3F      020TIM PART S/AON      NM   R$  000000000101400000000010230000000000985000000000100300000000009890000000000983000000000098900047000000000000001543000000000001548611000000000000009999123100000010000000000000BRTIMPACNOR1104
012015071096TIMP3F      020TIM PART S/AON      NM   R$  000000000099000000000010040000000000913000000000097100000000009130000000000913000000000097500080000000000000002498000000000002428051000000000000009999123100000010000000000000BRTIMPACNOR1104
012015071396TIMP3F      020TIM PART S/AON      NM   R$  000000000093300000000009900000000000933000000000097600000000009900000000000981000000000099000046000000000000001105000000000001079577000000000000009999123100000010000000000000BRTIMPACNOR1104
012015071496TIMP3F      020TIM PART S/AON      NM   R$  000000000097600000000009900000000000975000000000098300000000009800000000000980000000000099100047000000000000001302000000000001281102000000000000009999123100000010000000000000BRTIMPACNOR1104
012015071596TIMP3F      020TIM PART S/AON      NM   R$  000000000096900000000009940000000000951000000000096900000000009920000000000966000000000099200060000000000000001991000000000001931016000000000000009999123100000010000000000000BRTIMPACNOR1104
012015071696TIMP3F      020TIM PART S/AON      NM   R$  000000000098800000000009990000000000925000000000095300000000009250000000000925000000000093900051000000000000001376000000000001310102000000000000009999123100000010000000000000BRTIMPACNOR1104
012015071796TIMP3F      020TIM PART S/AON      NM   R$  000000000093500000000009530000000000927000000000093800000000009400000000000940000000000094200058000000000000001421000000000001333025000000000000009999123100000010000000000000BRTIMPACNOR1104
012015072096TIMP3F      020TIM PART S/AON      NM   R$  000000000094100000000009430000000000924000000000093300000000009260000000000914000000000092600046000000000000000980000000000000914561000000000000009999123100000010000000000000BRTIMPACNOR1104
012015072196TIMP3F      020TIM PART S/AON      NM   R$  000000000092000000000009330000000000915000000000092500000000009280000000000920000000000092800046000000000000001131000000000001046936000000000000009999123100000010000000000000BRTIMPACNOR1104
012015072296TIMP3F      020TIM PART S/AON      NM   R$  000000000093300000000009330000000000905000000000091400000000009120000000000902000000000091200041000000000000000936000000000000855382000000000000009999123100000010000000000000BRTIMPACNOR1104
012015072396TIMP3F      020TIM PART S/AON      NM   R$  000000000091200000000009360000000000906000000000092300000000009360000000000903000000000093600080000000000000002017000000000001862707000000000000009999123100000010000000000000BRTIMPACNOR1104
012015072496TIMP3F      020TIM PART S/AON      NM   R$  000000000092100000000009270000000000897000000000090700000000009270000000000895000000000092700062000000000000001930000000000001750968000000000000009999123100000010000000000000BRTIMPACNOR1104
012015072796TIMP3F      020TIM PART S/AON      NM   R$  000000000089400000000009290000000000888000000000090300000000009290000000000890000000000092900060000000000000001535000000000001387462000000000000009999123100000010000000000000BRTIMPACNOR1104
012015072896TIMP3F      020TIM PART S/AON      NM   R$  000000000092200000000009230000000000884000000000089200000000008900000000000884000000000089000086000000000000002200000000000001962264000000000000009999123100000010000000000000BRTIMPACNOR1104
012015072996TIMP3F      020TIM PART S/AON      NM   R$  000000000088000000000009250000000000880000000000090200000000008910000000000891000000000090700071000000000000001783000000000001609386000000000000009999123100000010000000000000BRTIMPACNOR1104
012015073096TIMP3F      020TIM PART S/AON      NM   R$  000000000090400000000009150000000000896000000000090700000000009140000000000914000000000091600039000000000000000957000000000000868001000000000000009999123100000010000000000000BRTIMPACNOR1104
012015073196TIMP3F      020TIM PART S/AON      NM   R$  000000000091500000000009480000000000908000000000093000000000009480000000000909000000000094800056000000000000001500000000000001395169000000000000009999123100000010000000000000BRTIMPACNOR1104
012015080396TIMP3F      020TIM PART S/AON      NM   R$  000000000094000000000009430000000000916000000000092900000000009270000000000915000000000092700037000000000000000929000000000000863047000000000000009999123100000010000000000000BRTIMPACNOR1104
012015080496TIMP3F      020TIM PART S/AON      NM   R$  000000000092900000000009420000000000906000000000091500000000009100000000000901000000000091000050000000000000001142000000000001045250000000000000009999123100000010000000000000BRTIMPACNOR1104
012015080596TIMP3F      020TIM PART S/AON      NM   R$  000000000090100000000009580000000000877000000000092500000000009580000000000899000000000095800081000000000000001611000000000001491790000000000000009999123100000010000000000000BRTIMPACNOR1104
012015080696TIMP3F      020TIM PART S/AON      NM   R$  000000000092800000000009600000000000928000000000094200000000009410000000000917000000000094100032000000000000000722000000000000680519000000000000009999123100000010000000000000BRTIMPACNOR1104
012015080796TIMP3F      020TIM PART S/AON      NM   R$  000000000093000000000009420000000000895000000000091700000000008950000000000895000000000094100031000000000000000692000000000000634375000000000000009999123100000010000000000000BRTIMPACNOR1104
012015081096TIMP3F      020TIM PART S/AON      NM   R$  000000000090000000000009250000000000898000000000091300000000009170000000000917000000000094200060000000000000001180000000000001078476000000000000009999123100000010000000000000BRTIMPACNOR1104
012015081196TIMP3F      020TIM PART S/AON      NM   R$  000000000091300000000009210000000000900000000000090600000000009010000000000894000000000090800042000000000000000513000000000000465204000000000000009999123100000010000000000000BRTIMPACNOR1104
012015081296TIMP3F      020TIM PART S/AON      NM   R$  000000000093100000000009310000000000866000000000088100000000008880000000000888000000000090000063000000000000001005000000000000886193000000000000009999123100000010000000000000BRTIMPACNOR1104
012015081396TIMP3F      020TIM PART S/AON      NM   R$  000000000087100000000008760000000000858000000000086600000000008580000000000858000000000087300060000000000000000891000000000000772128000000000000009999123100000010000000000000BRTIMPACNOR1104
012015081496TIMP3F      020TIM PART S/AON      NM   R$  000000000084700000000008610000000000847000000000085200000000008500000000000847000000000085000039000000000000000656000000000000559363000000000000009999123100000010000000000000BRTIMPACNOR1104
012015081796TIMP3F      020TIM PART S/AON      NM   R$  000000000082200000000008820000000000822000000000086700000000008820000000000875000000000088200036000000000000000889000000000000771162000000000000009999123100000010000000000000BRTIMPACNOR1104
